{
  "contractName": "Delivery",
  "abi": [
    {
      "constant": true,
      "inputs": [
        {
          "name": "",
          "type": "uint256"
        }
      ],
      "name": "items",
      "outputs": [
        {
          "name": "name",
          "type": "string"
        },
        {
          "name": "sku",
          "type": "uint256"
        },
        {
          "name": "price",
          "type": "uint256"
        },
        {
          "name": "state",
          "type": "uint8"
        },
        {
          "name": "longitude",
          "type": "string"
        },
        {
          "name": "latitude",
          "type": "string"
        },
        {
          "name": "provenance",
          "type": "bytes32"
        },
        {
          "name": "seller",
          "type": "address"
        },
        {
          "name": "buyer",
          "type": "address"
        }
      ],
      "payable": false,
      "stateMutability": "view",
      "type": "function",
      "signature": "0xbfb231d2"
    },
    {
      "constant": true,
      "inputs": [
        {
          "name": "",
          "type": "uint256"
        }
      ],
      "name": "buyers",
      "outputs": [
        {
          "name": "",
          "type": "address"
        }
      ],
      "payable": false,
      "stateMutability": "view",
      "type": "function",
      "signature": "0xf2aa8218"
    },
    {
      "inputs": [],
      "payable": false,
      "stateMutability": "nonpayable",
      "type": "constructor",
      "signature": "constructor"
    },
    {
      "anonymous": false,
      "inputs": [
        {
          "indexed": false,
          "name": "sku",
          "type": "uint256"
        }
      ],
      "name": "ForSale",
      "type": "event",
      "signature": "0xa96ae0fc3224ebd79eebfe54bd130cc9cb94416cddd1f2386115e00b72532468"
    },
    {
      "anonymous": false,
      "inputs": [
        {
          "indexed": false,
          "name": "sku",
          "type": "uint256"
        }
      ],
      "name": "Sold",
      "type": "event",
      "signature": "0x92f64ca637d023f354075a4be751b169c1a8a9ccb6d33cdd0cb3520543995727"
    },
    {
      "anonymous": false,
      "inputs": [
        {
          "indexed": false,
          "name": "sku",
          "type": "uint256"
        }
      ],
      "name": "Shipped",
      "type": "event",
      "signature": "0xf00b9a5725b80c54016f42114f6ed7792d22eecb116011c4afac29c57bef6c95"
    },
    {
      "anonymous": false,
      "inputs": [
        {
          "indexed": false,
          "name": "sku",
          "type": "uint256"
        }
      ],
      "name": "Received",
      "type": "event",
      "signature": "0xa8142743f8f70a4c26f3691cf4ed59718381fb2f18070ec52be1f1022d855557"
    },
    {
      "constant": false,
      "inputs": [
        {
          "name": "_name",
          "type": "string"
        },
        {
          "name": "_price",
          "type": "uint256"
        }
      ],
      "name": "addBasket",
      "outputs": [
        {
          "name": "",
          "type": "bool"
        }
      ],
      "payable": false,
      "stateMutability": "nonpayable",
      "type": "function",
      "signature": "0xee6841da"
    },
    {
      "constant": false,
      "inputs": [
        {
          "name": "sku",
          "type": "uint256"
        }
      ],
      "name": "buyBasket",
      "outputs": [],
      "payable": true,
      "stateMutability": "payable",
      "type": "function",
      "signature": "0x957089c3"
    },
    {
      "constant": true,
      "inputs": [],
      "name": "getBuyers",
      "outputs": [
        {
          "name": "",
          "type": "address[16]"
        }
      ],
      "payable": false,
      "stateMutability": "view",
      "type": "function",
      "signature": "0xf64bfaba"
    },
    {
      "constant": false,
      "inputs": [
        {
          "name": "basketId",
          "type": "uint256"
        }
      ],
      "name": "buy",
      "outputs": [
        {
          "name": "",
          "type": "uint256"
        }
      ],
      "payable": false,
      "stateMutability": "nonpayable",
      "type": "function",
      "signature": "0xd96a094a"
    },
    {
      "constant": false,
      "inputs": [
        {
          "name": "sku",
          "type": "uint256"
        }
      ],
      "name": "shipBasket",
      "outputs": [],
      "payable": false,
      "stateMutability": "nonpayable",
      "type": "function",
      "signature": "0xbd97f641"
    },
    {
      "constant": false,
      "inputs": [
        {
          "name": "sku",
          "type": "uint256"
        }
      ],
      "name": "receiveBasket",
      "outputs": [],
      "payable": false,
      "stateMutability": "nonpayable",
      "type": "function",
      "signature": "0xaf498771"
    },
    {
      "constant": true,
      "inputs": [
        {
          "name": "_sku",
          "type": "uint256"
        }
      ],
      "name": "fetchBasket",
      "outputs": [
        {
          "name": "name",
          "type": "string"
        },
        {
          "name": "sku",
          "type": "uint256"
        },
        {
          "name": "price",
          "type": "uint256"
        },
        {
          "name": "state",
          "type": "uint256"
        },
        {
          "name": "longitude",
          "type": "string"
        },
        {
          "name": "latitude",
          "type": "string"
        },
        {
          "name": "provenance",
          "type": "bytes32"
        },
        {
          "name": "seller",
          "type": "address"
        },
        {
          "name": "buyer",
          "type": "address"
        }
      ],
      "payable": false,
      "stateMutability": "view",
      "type": "function",
      "signature": "0xba80a463"
    },
    {
      "constant": false,
      "inputs": [
        {
          "name": "sku",
          "type": "uint256"
        },
        {
          "name": "proof",
          "type": "bytes32"
        }
      ],
      "name": "storeProof",
      "outputs": [],
      "payable": false,
      "stateMutability": "nonpayable",
      "type": "function",
      "signature": "0xff3739ba"
    },
    {
      "constant": false,
      "inputs": [
        {
          "name": "sku",
          "type": "uint256"
        }
      ],
      "name": "notarize",
      "outputs": [],
      "payable": false,
      "stateMutability": "nonpayable",
      "type": "function",
      "signature": "0x5a802f0d"
    },
    {
      "constant": true,
      "inputs": [
        {
          "name": "sku",
          "type": "uint256"
        }
      ],
      "name": "proofFor",
      "outputs": [
        {
          "name": "",
          "type": "bytes32"
        }
      ],
      "payable": false,
      "stateMutability": "view",
      "type": "function",
      "signature": "0xb17deed7"
    },
    {
      "constant": true,
      "inputs": [
        {
          "name": "sku",
          "type": "uint256"
        }
      ],
      "name": "checkProvenance",
      "outputs": [
        {
          "name": "",
          "type": "bool"
        }
      ],
      "payable": false,
      "stateMutability": "view",
      "type": "function",
      "signature": "0x334fe997"
    },
    {
      "constant": true,
      "inputs": [
        {
          "name": "sku",
          "type": "uint256"
        },
        {
          "name": "proof",
          "type": "bytes32"
        }
      ],
      "name": "hasProof",
      "outputs": [
        {
          "name": "",
          "type": "bool"
        }
      ],
      "payable": false,
      "stateMutability": "view",
      "type": "function",
      "signature": "0xb3a57ea9"
    }
  ],
  "bytecode": "0x60806040526040805190810160405280601f81526020017f4d6174742773204f7267616e69632044656c6976657279204261736b657473008152506001908051906020019062000051929190620000ae565b503480156200005f57600080fd5b50336000806101000a81548173ffffffffffffffffffffffffffffffffffffffff021916908373ffffffffffffffffffffffffffffffffffffffff16021790555060006012819055506200015d565b828054600181600116156101000203166002900490600052602060002090601f016020900481019282601f10620000f157805160ff191683800117855562000122565b8280016001018555821562000122579182015b828111156200012157825182559160200191906001019062000104565b5b50905062000131919062000135565b5090565b6200015a91905b80821115620001565760008160009055506001016200013c565b5090565b90565b611c64806200016d6000396000f3fe6080604052600436106100d0576000357c0100000000000000000000000000000000000000000000000000000000900463ffffffff168063334fe997146100d55780635a802f0d14610128578063957089c314610163578063af49877114610191578063b17deed7146101cc578063b3a57ea91461021b578063ba80a46314610278578063bd97f64114610486578063bfb231d2146104c1578063d96a094a146106dd578063ee6841da1461072c578063f2aa821814610816578063f64bfaba14610891578063ff3739ba146108e4575b600080fd5b3480156100e157600080fd5b5061010e600480360360208110156100f857600080fd5b8101908080359060200190929190505050610929565b604051808215151515815260200191505060405180910390f35b34801561013457600080fd5b506101616004803603602081101561014b57600080fd5b8101908080359060200190929190505050610949565b005b61018f6004803603602081101561017957600080fd5b8101908080359060200190929190505050610a09565b005b34801561019d57600080fd5b506101ca600480360360208110156101b457600080fd5b8101908080359060200190929190505050610cce565b005b3480156101d857600080fd5b50610205600480360360208110156101ef57600080fd5b8101908080359060200190929190505050610e98565b6040518082815260200191505060405180910390f35b34801561022757600080fd5b5061025e6004803603604081101561023e57600080fd5b810190808035906020019092919080359060200190929190505050610fb4565b604051808215151515815260200191505060405180910390f35b34801561028457600080fd5b506102b16004803603602081101561029b57600080fd5b8101908080359060200190929190505050610fd7565b60405180806020018a815260200189815260200188815260200180602001806020018781526020018673ffffffffffffffffffffffffffffffffffffffff1673ffffffffffffffffffffffffffffffffffffffff1681526020018573ffffffffffffffffffffffffffffffffffffffff1673ffffffffffffffffffffffffffffffffffffffff16815260200184810384528d818151815260200191508051906020019080838360005b8381101561037557808201518184015260208101905061035a565b50505050905090810190601f1680156103a25780820380516001836020036101000a031916815260200191505b50848103835289818151815260200191508051906020019080838360005b838110156103db5780820151818401526020810190506103c0565b50505050905090810190601f1680156104085780820380516001836020036101000a031916815260200191505b50848103825288818151815260200191508051906020019080838360005b83811015610441578082015181840152602081019050610426565b50505050905090810190601f16801561046e5780820380516001836020036101000a031916815260200191505b509c5050505050505050505050505060405180910390f35b34801561049257600080fd5b506104bf600480360360208110156104a957600080fd5b810190808035906020019092919050505061130f565b005b3480156104cd57600080fd5b506104fa600480360360208110156104e457600080fd5b81019080803590602001909291905050506114d9565b60405180806020018a815260200189815260200188600381111561051a57fe5b60ff16815260200180602001806020018781526020018673ffffffffffffffffffffffffffffffffffffffff1673ffffffffffffffffffffffffffffffffffffffff1681526020018573ffffffffffffffffffffffffffffffffffffffff1673ffffffffffffffffffffffffffffffffffffffff16815260200184810384528d818151815260200191508051906020019080838360005b838110156105cc5780820151818401526020810190506105b1565b50505050905090810190601f1680156105f95780820380516001836020036101000a031916815260200191505b50848103835289818151815260200191508051906020019080838360005b83811015610632578082015181840152602081019050610617565b50505050905090810190601f16801561065f5780820380516001836020036101000a031916815260200191505b50848103825288818151815260200191508051906020019080838360005b8381101561069857808201518184015260208101905061067d565b50505050905090810190601f1680156106c55780820380516001836020036101000a031916815260200191505b509c5050505050505050505050505060405180910390f35b3480156106e957600080fd5b506107166004803603602081101561070057600080fd5b810190808035906020019092919050505061173c565b6040518082815260200191505060405180910390f35b34801561073857600080fd5b506107fc6004803603604081101561074f57600080fd5b810190808035906020019064010000000081111561076c57600080fd5b82018360208201111561077e57600080fd5b803590602001918460018302840111640100000000831117156107a057600080fd5b91908080601f016020809104026020016040519081016040528093929190818152602001838380828437600081840152601f19601f8201169050808301925050505050505091929192908035906020019092919050505061181a565b604051808215151515815260200191505060405180910390f35b34801561082257600080fd5b5061084f6004803603602081101561083957600080fd5b8101908080359060200190929190505050611a9a565b604051808273ffffffffffffffffffffffffffffffffffffffff1673ffffffffffffffffffffffffffffffffffffffff16815260200191505060405180910390f35b34801561089d57600080fd5b506108a6611acf565b6040518082601060200280838360005b838110156108d15780820151818401526020810190506108b6565b5050505090500191505060405180910390f35b3480156108f057600080fd5b506109276004803603604081101561090757600080fd5b810190808035906020019092919080359060200190929190505050611b50565b005b60008061093583610e98565b90506109418382610fb4565b915050919050565b338073ffffffffffffffffffffffffffffffffffffffff163373ffffffffffffffffffffffffffffffffffffffff161415156109ed576040517f08c379a00000000000000000000000000000000000000000000000000000000081526004018080602001828103825260188152602001807f5468652073656e646572206973207468652063616c6c6572000000000000000081525060200191505060405180910390fd5b60006109f883610e98565b9050610a048382611b50565b505050565b60125460006003811115610a1957fe5b6013600083815260200190815260200160002060030160009054906101000a900460ff166003811115610a4857fe5b141515610abd576040517f08c379a000000000000000000000000000000000000000000000000000000000815260040180806020018281038252600f8152602001807f4261736b657420666f722073616c65000000000000000000000000000000000081525060200191505060405180910390fd5b6013600083815260200190815260200160002060020154803410151515610b4c576040517f08c379a000000000000000000000000000000000000000000000000000000000815260040180806020018281038252600f8152602001807f6e6f74207061696420656e6f756768000000000000000000000000000000000081525060200191505060405180910390fd5b826013600085815260200190815260200160002060070160009054906101000a900473ffffffffffffffffffffffffffffffffffffffff1673ffffffffffffffffffffffffffffffffffffffff166108fc60136000878152602001908152602001600020600201549081150290604051600060405180830381858888f19350505050158015610bdf573d6000803e3d6000fd5b50336013600086815260200190815260200160002060080160006101000a81548173ffffffffffffffffffffffffffffffffffffffff021916908373ffffffffffffffffffffffffffffffffffffffff16021790555060016013600086815260200190815260200160002060030160006101000a81548160ff02191690836003811115610c6857fe5b02179055507f92f64ca637d023f354075a4be751b169c1a8a9ccb6d33cdd0cb3520543995727846040518082815260200191505060405180910390a160006013600083815260200190815260200160002060020154905060008134039050505050505050565b8060026003811115610cdc57fe5b6013600083815260200190815260200160002060030160009054906101000a900460ff166003811115610d0b57fe5b141515610d80576040517f08c379a000000000000000000000000000000000000000000000000000000000815260040180806020018281038252600e8152602001807f4261736b6574207368697070656400000000000000000000000000000000000081525060200191505060405180910390fd5b338073ffffffffffffffffffffffffffffffffffffffff163373ffffffffffffffffffffffffffffffffffffffff16141515610e24576040517f08c379a00000000000000000000000000000000000000000000000000000000081526004018080602001828103825260188152602001807f5468652073656e646572206973207468652063616c6c6572000000000000000081525060200191505060405180910390fd5b60036013600085815260200190815260200160002060030160006101000a81548160ff02191690836003811115610e5757fe5b02179055507fa8142743f8f70a4c26f3691cf4ed59718381fb2f18070ec52be1f1022d855557836040518082815260200191505060405180910390a1505050565b6000600260016040516020018082805460018160011615610100020316600290048015610efc5780601f10610eda576101008083540402835291820191610efc565b820191906000526020600020905b815481529060010190602001808311610ee8575b50509150506040516020818303038152906040526040518082805190602001908083835b602083101515610f455780518252602082019150602081019050602083039250610f20565b6001836020036101000a038019825116818451168082178552505050505050905001915050602060405180830381855afa158015610f87573d6000803e3d6000fd5b5050506040513d6020811015610f9c57600080fd5b81019080805190602001909291905050509050919050565b600081601360008581526020019081526020016000206006015414905092915050565b606060008060006060806000806000601360008b81526020019081526020016000206000018054600181600116156101000203166002900480601f0160208091040260200160405190810160405280929190818152602001828054600181600116156101000203166002900480156110905780601f1061106557610100808354040283529160200191611090565b820191906000526020600020905b81548152906001019060200180831161107357829003601f168201915b50505050509850601360008b8152602001908152602001600020600101549750601360008b8152602001908152602001600020600201549650601360008b815260200190815260200160002060030160009054906101000a900460ff1660038111156110f857fe5b9550601360008b81526020019081526020016000206004018054600181600116156101000203166002900480601f0160208091040260200160405190810160405280929190818152602001828054600181600116156101000203166002900480156111a45780601f10611179576101008083540402835291602001916111a4565b820191906000526020600020905b81548152906001019060200180831161118757829003601f168201915b50505050509450601360008b81526020019081526020016000206005018054600181600116156101000203166002900480601f0160208091040260200160405190810160405280929190818152602001828054600181600116156101000203166002900480156112555780601f1061122a57610100808354040283529160200191611255565b820191906000526020600020905b81548152906001019060200180831161123857829003601f168201915b50505050509350601360008b8152602001908152602001600020600601549250601360008b815260200190815260200160002060070160009054906101000a900473ffffffffffffffffffffffffffffffffffffffff169150601360008b815260200190815260200160002060080160009054906101000a900473ffffffffffffffffffffffffffffffffffffffff1690508888888888888888889850985098509850985098509850985098509193959799909294969850565b806001600381111561131d57fe5b6013600083815260200190815260200160002060030160009054906101000a900460ff16600381111561134c57fe5b1415156113c1576040517f08c379a000000000000000000000000000000000000000000000000000000000815260040180806020018281038252600b8152602001807f4261736b657420736f6c6400000000000000000000000000000000000000000081525060200191505060405180910390fd5b338073ffffffffffffffffffffffffffffffffffffffff163373ffffffffffffffffffffffffffffffffffffffff16141515611465576040517f08c379a00000000000000000000000000000000000000000000000000000000081526004018080602001828103825260188152602001807f5468652073656e646572206973207468652063616c6c6572000000000000000081525060200191505060405180910390fd5b60026013600085815260200190815260200160002060030160006101000a81548160ff0219169083600381111561149857fe5b02179055507ff00b9a5725b80c54016f42114f6ed7792d22eecb116011c4afac29c57bef6c95836040518082815260200191505060405180910390a1505050565b6013602052806000526040600020600091509050806000018054600181600116156101000203166002900480601f0160208091040260200160405190810160405280929190818152602001828054600181600116156101000203166002900480156115855780601f1061155a57610100808354040283529160200191611585565b820191906000526020600020905b81548152906001019060200180831161156857829003601f168201915b5050505050908060010154908060020154908060030160009054906101000a900460ff1690806004018054600181600116156101000203166002900480601f0160208091040260200160405190810160405280929190818152602001828054600181600116156101000203166002900480156116425780601f1061161757610100808354040283529160200191611642565b820191906000526020600020905b81548152906001019060200180831161162557829003601f168201915b505050505090806005018054600181600116156101000203166002900480601f0160208091040260200160405190810160405280929190818152602001828054600181600116156101000203166002900480156116e05780601f106116b5576101008083540402835291602001916116e0565b820191906000526020600020905b8154815290600101906020018083116116c357829003601f168201915b5050505050908060060154908060070160009054906101000a900473ffffffffffffffffffffffffffffffffffffffff16908060080160009054906101000a900473ffffffffffffffffffffffffffffffffffffffff16905089565b600080821015801561174f575060038211155b15156117c3576040517f08c379a000000000000000000000000000000000000000000000000000000000815260040180806020018281038252601a8152602001807f54686973206261736b657420646f6573206e6f7420657869737400000000000081525060200191505060405180910390fd5b336002836010811015156117d357fe5b0160006101000a81548173ffffffffffffffffffffffffffffffffffffffff021916908373ffffffffffffffffffffffffffffffffffffffff160217905550819050919050565b60007fa96ae0fc3224ebd79eebfe54bd130cc9cb94416cddd1f2386115e00b725324686012546040518082815260200191505060405180910390a16101206040519081016040528084815260200160125481526020018381526020016000600381111561188357fe5b81526020016040805190810160405280600181526020017f300000000000000000000000000000000000000000000000000000000000000081525081526020016040805190810160405280600181526020017f30000000000000000000000000000000000000000000000000000000000000008152508152602001600060010281526020013373ffffffffffffffffffffffffffffffffffffffff168152602001600073ffffffffffffffffffffffffffffffffffffffff168152506013600060125481526020019081526020016000206000820151816000019080519060200190611970929190611b6f565b50602082015181600101556040820151816002015560608201518160030160006101000a81548160ff021916908360038111156119a957fe5b021790555060808201518160040190805190602001906119ca929190611b6f565b5060a08201518160050190805190602001906119e7929190611b6f565b5060c0820151816006015560e08201518160070160006101000a81548173ffffffffffffffffffffffffffffffffffffffff021916908373ffffffffffffffffffffffffffffffffffffffff1602179055506101008201518160080160006101000a81548173ffffffffffffffffffffffffffffffffffffffff021916908373ffffffffffffffffffffffffffffffffffffffff1602179055509050506001601254016012819055506001905092915050565b600281601081101515611aa957fe5b016000915054906101000a900473ffffffffffffffffffffffffffffffffffffffff1681565b611ad7611bef565b6002601080602002604051908101604052809291908260108015611b46576020028201915b8160009054906101000a900473ffffffffffffffffffffffffffffffffffffffff1673ffffffffffffffffffffffffffffffffffffffff1681526020019060010190808311611afc575b5050505050905090565b8060136000848152602001908152602001600020600601819055505050565b828054600181600116156101000203166002900490600052602060002090601f016020900481019282601f10611bb057805160ff1916838001178555611bde565b82800160010185558215611bde579182015b82811115611bdd578251825591602001919060010190611bc2565b5b509050611beb9190611c13565b5090565b61020060405190810160405280601090602082028038833980820191505090505090565b611c3591905b80821115611c31576000816000905550600101611c19565b5090565b9056fea165627a7a72305820bd2e22941b02b8773342df5c52985a73b77643fe261c03922bd87864713859aa0029",
  "source": "pragma solidity ^0.5.0;\n\ncontract Delivery {\n\n  /* Owner of the contract */\n  address owner;\n  \n  /* Name of the farm (used for the verification of the provenance)\n\n  Later on this ought to be replaced by a the public key of an RFID tag\n  attached to the basket and compare the hash of that key registered by\n  the seller against the hash of that same key retrieved by the buyer when scanning the basket.\n  */\n  string farmName = \"Matt's Organic Delivery Baskets\";\n\n  /* List of the buyers */\n  address[16] public buyers;\n\n  /* variable to track the most recent sku # */\n  uint private skuCount;\n\n  // public mapping that maps the SKU (a number) to a basket.\n  mapping (uint => Basket) public items;\n\n  /* enum called State with 4 states\n    ForSale\n    Sold\n    Shipped\n    Received\n  */\n  enum State {ForSale, Sold, Shipped, Received}\n  State enumState;\n\n  /* struct named Basket.\n  */\n  struct Basket {\n    string name; // Organic Basket basket\n    uint sku; // number of the basket sold on the platform\n    uint price; //price of the basked\n    State state; // status of delivery\n    string longitude; // coordinates of the farm\n    string latitude;\n    bytes32 provenance; //proof of provenance build from the longitude and latitude set by the seller\n    address payable seller;\n    address payable buyer; \n  }\n\n  /* Create 4 events with the same name as each possible State (see above)\n    Each event should accept one argument, the sku*/\n  event ForSale(uint sku);\n  event Sold(uint sku);\n  event Shipped(uint sku);\n  event Received(uint sku);\n\n/* Modifers that verify the integrity of transactions */\n  modifier verifySender (address _address) {require (owner == _address, \"The sender is the owner\"); _;}\n  modifier verifyCaller (address _address) {require (msg.sender == _address, \"The sender is the caller\"); _;}\n  modifier paidEnough(uint _price) {require(msg.value >= _price, \"not paid enough\"); _;}\n  modifier checkValue(uint _sku) {\n    //refund them after pay for item (why it is before, _ checks for logic before func)\n    _;\n    uint _price = items[_sku].price;\n    uint amountToRefund = msg.value - _price;    \n    //items[_sku].buyer.transfer(amountToRefund);\n  }\n\n  /* Modifiers called to verify different statuses of the basket */\n  modifier forSale(uint _sku) {require(items[_sku].state == State.ForSale, \"Basket for sale\"); _;}\n  modifier sold(uint _sku) {require(items[_sku].state == State.Sold, \"Basket sold\"); _;}\n  modifier shipped(uint _sku) {require(items[_sku].state == State.Shipped, \"Basket shipped\"); _;}\n  modifier received(uint _sku) {require(items[_sku].state == State.Received, \"Basket received\"); _;}\n\n  constructor() public {\n    /* Here, set the owner as the person who instantiated the contract\n       and set your skuCount to 0. */\n    owner = msg.sender;\n    skuCount = 0;\n  }\n\n  function addBasket(string memory _name, uint _price) public returns(bool){\n    emit ForSale(skuCount);\n    items[skuCount] = Basket( {\n      name: _name,\n      sku: skuCount,\n      price: _price,\n      state: State.ForSale,\n      longitude: \"0\",\n      latitude: \"0\",\n      provenance: 0,\n      seller: msg.sender,\n      buyer: 0x0000000000000000000000000000000000000000});\n    skuCount = skuCount + 1;\n    return true;\n  }\n\n  /* transfer money to the seller, set the buyer as the person who called this transaction, and set the state\n    to Sold. */\n\n  function buyBasket(uint sku)\n    public\n    payable\n    forSale(skuCount)\n    paidEnough(items[sku].price)\n    checkValue(sku)\n  {\n    items[sku].seller.transfer(items[sku].price);\n    items[sku].buyer = msg.sender;\n    items[sku].state = State.Sold;\n    emit Sold(sku);\n  }\n\n  // Retrieving the buyers\n  function getBuyers() public view returns (address[16] memory) {\n    return buyers;\n  }  \n\n  function buy(uint basketId) public returns (uint) {\n    require(basketId >= 0 && basketId <= 3, \"This basket does not exist\");\n\n    buyers[basketId] = msg.sender;\n\n    return basketId;\n  }\n\n  /* Add 2 modifiers to check if the item is sold already, and that the person calling this function\n  is the seller. Change the state of the item to shipped. Remember to call the event associated with this function!*/\n  function shipBasket(uint sku)\n    public\n    sold(sku)\n    verifyCaller(msg.sender)\n  {\n    items[sku].state = State.Shipped;\n    emit Shipped(sku);\n  }\n\n  /* Marks the basket as received at the end of the delivery */\n  function receiveBasket(uint sku)\n    public\n    shipped(sku)\n    verifyCaller(msg.sender)\n  {\n    items[sku].state = State.Received;\n    emit Received(sku);\n  }\n\n  // Get the elements of a basket\n  function fetchBasket(uint _sku) public view returns (\n      string memory name,\n      uint sku,\n      uint price,\n      uint state,\n      string memory longitude,\n      string memory latitude,\n      bytes32 provenance,\n      address seller,\n      address buyer)\n  {\n    name = items[_sku].name;\n    sku = items[_sku].sku;\n    price = items[_sku].price;\n    state = uint(items[_sku].state);\n    longitude = items[_sku].longitude;\n    latitude = items[_sku].latitude;\n    provenance = items[_sku].provenance;\n    seller = items[_sku].seller;\n    buyer = items[_sku].buyer;\n    return (name, sku, price, state, longitude, latitude, provenance, seller, buyer);\n  }\n\n  // Proof of Provenance (PoP) section\n  //mapping (bytes32 => bool) private proofs;\n  \n  // store a proof of provenance in the basket\n  function storeProof(uint sku, bytes32 proof) public {\n    items[sku].provenance = proof;\n    //proofs[proof] = true;\n  }\n  \n  // calculate and store the proof of provenance of a basket\n  // NB: only the basket seller can notarize the provenance\n  function notarize(uint sku)\n    public\n    verifyCaller(msg.sender)\n  {\n    bytes32 proof = proofFor(sku);\n    storeProof(sku, proof);\n  }\n  \n  // helper function to get the farm name's sha256\n  // It can be recorded only by the seller but verified by the buyer\n  // for a given sellet all its baskets have the same proof of provenance\n  // which is a hash of the name of the farm where the basket was produced\n  function proofFor(uint sku) view public returns (bytes32) {\n    //return sha256(abi.encodePacked(items[sku].longitude, items[sku].latitude));\n    return sha256(abi.encodePacked(farmName));\n  }\n  \n  // check if the location of a basket has been notarized\n  function checkProvenance(uint sku) view public returns (bool) {\n    bytes32 proof = proofFor(sku);\n    return hasProof(sku, proof);\n  }\n\n  // returns true if proof is stored\n  function hasProof(uint sku, bytes32 proof) view public returns(bool) {\n    return items[sku].provenance == proof;\n  }\n\n}\n",
  "sourcePath": "/Users/mlux/Documents/Deloitte/Sandbox/ConsenSysAcademy/final-project/contracts/Delivery.sol",
  "compiler": {
    "name": "solc",
    "version": "0.5.0+commit.1d4f565a.Emscripten.clang"
  },
  "schemaVersion": "3.0.1",
  "updatedAt": "2019-01-15T23:32:29.562Z",
  "devdoc": {
    "methods": {}
  },
  "userdoc": {
    "methods": {}
  }
}