{
  "contractName": "Delivery",
  "abi": [
    {
      "constant": true,
      "inputs": [
        {
          "name": "",
          "type": "uint256"
        }
      ],
      "name": "items",
      "outputs": [
        {
          "name": "name",
          "type": "string"
        },
        {
          "name": "sku",
          "type": "uint256"
        },
        {
          "name": "price",
          "type": "uint256"
        },
        {
          "name": "state",
          "type": "uint8"
        },
        {
          "name": "longitude",
          "type": "string"
        },
        {
          "name": "latitude",
          "type": "string"
        },
        {
          "name": "seller",
          "type": "address"
        },
        {
          "name": "buyer",
          "type": "address"
        }
      ],
      "payable": false,
      "stateMutability": "view",
      "type": "function"
    },
    {
      "inputs": [],
      "payable": false,
      "stateMutability": "nonpayable",
      "type": "constructor"
    },
    {
      "anonymous": false,
      "inputs": [
        {
          "indexed": false,
          "name": "sku",
          "type": "uint256"
        }
      ],
      "name": "ForSale",
      "type": "event"
    },
    {
      "anonymous": false,
      "inputs": [
        {
          "indexed": false,
          "name": "sku",
          "type": "uint256"
        }
      ],
      "name": "Sold",
      "type": "event"
    },
    {
      "anonymous": false,
      "inputs": [
        {
          "indexed": false,
          "name": "sku",
          "type": "uint256"
        }
      ],
      "name": "Shipped",
      "type": "event"
    },
    {
      "anonymous": false,
      "inputs": [
        {
          "indexed": false,
          "name": "sku",
          "type": "uint256"
        }
      ],
      "name": "Received",
      "type": "event"
    },
    {
      "constant": false,
      "inputs": [
        {
          "name": "_name",
          "type": "string"
        },
        {
          "name": "_price",
          "type": "uint256"
        }
      ],
      "name": "addItem",
      "outputs": [
        {
          "name": "",
          "type": "bool"
        }
      ],
      "payable": false,
      "stateMutability": "nonpayable",
      "type": "function"
    },
    {
      "constant": false,
      "inputs": [
        {
          "name": "sku",
          "type": "uint256"
        }
      ],
      "name": "buyItem",
      "outputs": [],
      "payable": true,
      "stateMutability": "payable",
      "type": "function"
    },
    {
      "constant": false,
      "inputs": [
        {
          "name": "sku",
          "type": "uint256"
        }
      ],
      "name": "shipItem",
      "outputs": [],
      "payable": false,
      "stateMutability": "nonpayable",
      "type": "function"
    },
    {
      "constant": false,
      "inputs": [
        {
          "name": "sku",
          "type": "uint256"
        }
      ],
      "name": "receiveItem",
      "outputs": [],
      "payable": false,
      "stateMutability": "nonpayable",
      "type": "function"
    },
    {
      "constant": true,
      "inputs": [
        {
          "name": "_sku",
          "type": "uint256"
        }
      ],
      "name": "fetchItem",
      "outputs": [
        {
          "name": "name",
          "type": "string"
        },
        {
          "name": "sku",
          "type": "uint256"
        },
        {
          "name": "price",
          "type": "uint256"
        },
        {
          "name": "state",
          "type": "uint256"
        },
        {
          "name": "seller",
          "type": "address"
        },
        {
          "name": "buyer",
          "type": "address"
        }
      ],
      "payable": false,
      "stateMutability": "view",
      "type": "function"
    }
  ],
  "bytecode": "0x608060405234801561001057600080fd5b50336000806101000a81548173ffffffffffffffffffffffffffffffffffffffff021916908373ffffffffffffffffffffffffffffffffffffffff1602179055506000600181905550611367806100686000396000f3fe608060405260043610610078576000357c0100000000000000000000000000000000000000000000000000000000900463ffffffff16806362d6bbdf1461007d578063a26be99914610167578063ad4b9cfb146101a2578063bfb231d2146102d1578063e7fb74c7146104e6578063f61c899a14610514575b600080fd5b34801561008957600080fd5b5061014d600480360360408110156100a057600080fd5b81019080803590602001906401000000008111156100bd57600080fd5b8201836020820111156100cf57600080fd5b803590602001918460018302840111640100000000831117156100f157600080fd5b91908080601f016020809104026020016040519081016040528093929190818152602001838380828437600081840152601f19601f8201169050808301925050505050505091929192908035906020019092919050505061054f565b604051808215151515815260200191505060405180910390f35b34801561017357600080fd5b506101a06004803603602081101561018a57600080fd5b81019080803590602001909291905050506107b9565b005b3480156101ae57600080fd5b506101db600480360360208110156101c557600080fd5b8101908080359060200190929190505050610983565b60405180806020018781526020018681526020018581526020018473ffffffffffffffffffffffffffffffffffffffff1673ffffffffffffffffffffffffffffffffffffffff1681526020018373ffffffffffffffffffffffffffffffffffffffff1673ffffffffffffffffffffffffffffffffffffffff168152602001828103825288818151815260200191508051906020019080838360005b83811015610291578082015181840152602081019050610276565b50505050905090810190601f1680156102be5780820380516001836020036101000a031916815260200191505b5097505050505050505060405180910390f35b3480156102dd57600080fd5b5061030a600480360360208110156102f457600080fd5b8101908080359060200190929190505050610b2e565b604051808060200189815260200188815260200187600381111561032a57fe5b60ff16815260200180602001806020018673ffffffffffffffffffffffffffffffffffffffff1673ffffffffffffffffffffffffffffffffffffffff1681526020018573ffffffffffffffffffffffffffffffffffffffff1673ffffffffffffffffffffffffffffffffffffffff16815260200184810384528c818151815260200191508051906020019080838360005b838110156103d65780820151818401526020810190506103bb565b50505050905090810190601f1680156104035780820380516001836020036101000a031916815260200191505b50848103835288818151815260200191508051906020019080838360005b8381101561043c578082015181840152602081019050610421565b50505050905090810190601f1680156104695780820380516001836020036101000a031916815260200191505b50848103825287818151815260200191508051906020019080838360005b838110156104a2578082015181840152602081019050610487565b50505050905090810190601f1680156104cf5780820380516001836020036101000a031916815260200191505b509b50505050505050505050505060405180910390f35b610512600480360360208110156104fc57600080fd5b8101908080359060200190929190505050610d8b565b005b34801561052057600080fd5b5061054d6004803603602081101561053757600080fd5b81019080803590602001909291905050506110cd565b005b60007fa96ae0fc3224ebd79eebfe54bd130cc9cb94416cddd1f2386115e00b725324686001546040518082815260200191505060405180910390a1610100604051908101604052808481526020016001548152602001838152602001600060038111156105b857fe5b81526020016040805190810160405280600181526020017f300000000000000000000000000000000000000000000000000000000000000081525081526020016040805190810160405280600181526020017f300000000000000000000000000000000000000000000000000000000000000081525081526020013373ffffffffffffffffffffffffffffffffffffffff168152602001600073ffffffffffffffffffffffffffffffffffffffff16815250600260006001548152602001908152602001600020600082015181600001908051906020019061069b929190611296565b50602082015181600101556040820151816002015560608201518160030160006101000a81548160ff021916908360038111156106d457fe5b021790555060808201518160040190805190602001906106f5929190611296565b5060a0820151816005019080519060200190610712929190611296565b5060c08201518160060160006101000a81548173ffffffffffffffffffffffffffffffffffffffff021916908373ffffffffffffffffffffffffffffffffffffffff16021790555060e08201518160070160006101000a81548173ffffffffffffffffffffffffffffffffffffffff021916908373ffffffffffffffffffffffffffffffffffffffff16021790555090505060018054016001819055506001905092915050565b80600260038111156107c757fe5b6002600083815260200190815260200160002060030160009054906101000a900460ff1660038111156107f657fe5b14151561086b576040517f08c379a000000000000000000000000000000000000000000000000000000000815260040180806020018281038252600e8152602001807f4261736b6574207368697070656400000000000000000000000000000000000081525060200191505060405180910390fd5b338073ffffffffffffffffffffffffffffffffffffffff163373ffffffffffffffffffffffffffffffffffffffff1614151561090f576040517f08c379a00000000000000000000000000000000000000000000000000000000081526004018080602001828103825260188152602001807f5468652073656e646572206973207468652063616c6c6572000000000000000081525060200191505060405180910390fd5b60036002600085815260200190815260200160002060030160006101000a81548160ff0219169083600381111561094257fe5b02179055507fa8142743f8f70a4c26f3691cf4ed59718381fb2f18070ec52be1f1022d855557836040518082815260200191505060405180910390a1505050565b60606000806000806000600260008881526020019081526020016000206000018054600181600116156101000203166002900480601f016020809104026020016040519081016040528092919081815260200182805460018160011615610100020316600290048015610a375780601f10610a0c57610100808354040283529160200191610a37565b820191906000526020600020905b815481529060010190602001808311610a1a57829003601f168201915b5050505050955060026000888152602001908152602001600020600101549450600260008881526020019081526020016000206002015493506002600088815260200190815260200160002060030160009054906101000a900460ff166003811115610a9f57fe5b92506002600088815260200190815260200160002060060160009054906101000a900473ffffffffffffffffffffffffffffffffffffffff1691506002600088815260200190815260200160002060070160009054906101000a900473ffffffffffffffffffffffffffffffffffffffff16905085858585858595509550955095509550955091939550919395565b6002602052806000526040600020600091509050806000018054600181600116156101000203166002900480601f016020809104026020016040519081016040528092919081815260200182805460018160011615610100020316600290048015610bda5780601f10610baf57610100808354040283529160200191610bda565b820191906000526020600020905b815481529060010190602001808311610bbd57829003601f168201915b5050505050908060010154908060020154908060030160009054906101000a900460ff1690806004018054600181600116156101000203166002900480601f016020809104026020016040519081016040528092919081815260200182805460018160011615610100020316600290048015610c975780601f10610c6c57610100808354040283529160200191610c97565b820191906000526020600020905b815481529060010190602001808311610c7a57829003601f168201915b505050505090806005018054600181600116156101000203166002900480601f016020809104026020016040519081016040528092919081815260200182805460018160011615610100020316600290048015610d355780601f10610d0a57610100808354040283529160200191610d35565b820191906000526020600020905b815481529060010190602001808311610d1857829003601f168201915b5050505050908060060160009054906101000a900473ffffffffffffffffffffffffffffffffffffffff16908060070160009054906101000a900473ffffffffffffffffffffffffffffffffffffffff16905088565b60015460006003811115610d9b57fe5b6002600083815260200190815260200160002060030160009054906101000a900460ff166003811115610dca57fe5b141515610e3f576040517f08c379a000000000000000000000000000000000000000000000000000000000815260040180806020018281038252600f8152602001807f4261736b657420666f722073616c65000000000000000000000000000000000081525060200191505060405180910390fd5b6002600083815260200190815260200160002060020154803410151515610ece576040517f08c379a000000000000000000000000000000000000000000000000000000000815260040180806020018281038252600f8152602001807f6e6f74207061696420656e6f756768000000000000000000000000000000000081525060200191505060405180910390fd5b826002600085815260200190815260200160002060060160009054906101000a900473ffffffffffffffffffffffffffffffffffffffff1673ffffffffffffffffffffffffffffffffffffffff166108fc60026000878152602001908152602001600020600201549081150290604051600060405180830381858888f19350505050158015610f61573d6000803e3d6000fd5b50336002600086815260200190815260200160002060070160006101000a81548173ffffffffffffffffffffffffffffffffffffffff021916908373ffffffffffffffffffffffffffffffffffffffff16021790555060016002600086815260200190815260200160002060030160006101000a81548160ff02191690836003811115610fea57fe5b02179055507f92f64ca637d023f354075a4be751b169c1a8a9ccb6d33cdd0cb3520543995727846040518082815260200191505060405180910390a1600060026000838152602001908152602001600020600201549050600081340390506002600084815260200190815260200160002060070160009054906101000a900473ffffffffffffffffffffffffffffffffffffffff1673ffffffffffffffffffffffffffffffffffffffff166108fc829081150290604051600060405180830381858888f193505050501580156110c4573d6000803e3d6000fd5b50505050505050565b80600160038111156110db57fe5b6002600083815260200190815260200160002060030160009054906101000a900460ff16600381111561110a57fe5b14151561117f576040517f08c379a000000000000000000000000000000000000000000000000000000000815260040180806020018281038252600b8152602001807f4261736b657420736f6c6400000000000000000000000000000000000000000081525060200191505060405180910390fd5b338073ffffffffffffffffffffffffffffffffffffffff163373ffffffffffffffffffffffffffffffffffffffff16141515611223576040517f08c379a00000000000000000000000000000000000000000000000000000000081526004018080602001828103825260188152602001807f5468652073656e646572206973207468652063616c6c6572000000000000000081525060200191505060405180910390fd5b600280600085815260200190815260200160002060030160006101000a81548160ff0219169083600381111561125557fe5b02179055507ff00b9a5725b80c54016f42114f6ed7792d22eecb116011c4afac29c57bef6c95836040518082815260200191505060405180910390a1505050565b828054600181600116156101000203166002900490600052602060002090601f016020900481019282601f106112d757805160ff1916838001178555611305565b82800160010185558215611305579182015b828111156113045782518255916020019190600101906112e9565b5b5090506113129190611316565b5090565b61133891905b8082111561133457600081600090555060010161131c565b5090565b9056fea165627a7a7230582013b2078cef86b676f041dc118729d7357a7988209e80593dce5d48500327ed7d0029",
  "source": "pragma solidity ^0.5.0;\n\ncontract Delivery {\n\n  /* set owner */\n  address owner;\n\n  /* variable to track the most recent sku # */\n  uint private skuCount;\n\n  // public mapping that maps the SKU (a number) to a basket.\n  //mapping (uint => Item) public items;\n  mapping (uint => Basket) public items;\n\n  /* enum called State with 4 states\n    ForSale\n    Sold\n    Shipped\n    Received\n  */\n  enum State {ForSale, Sold, Shipped, Received}\n  State enumState;\n\n  /* struct named Basket.\n  */\n  struct Basket {\n    string name; // Organic Basket basket\n    uint sku; // number of the basket sold on the platform\n    uint price; //price of the basked\n    State state; // status of delivery\n    string longitude; // coordinates of the farm\n    string latitude;\n    address payable seller;\n    address payable buyer; \n  }\n\n  /* Create 4 events with the same name as each possible State (see above)\n    Each event should accept one argument, the sku*/\n  event ForSale(uint sku);\n  event Sold(uint sku);\n  event Shipped(uint sku);\n  event Received(uint sku);\n\n/* Modifers that verify the integrity of transactions */\n  modifier verifySender (address _address) {require (owner == _address, \"The sender is the owner\"); _;}\n  modifier verifyCaller (address _address) {require (msg.sender == _address, \"The sender is the caller\"); _;}\n  modifier paidEnough(uint _price) {require(msg.value >= _price, \"not paid enough\"); _;}\n  modifier checkValue(uint _sku) {\n    //refund them after pay for item (why it is before, _ checks for logic before func)\n    _;\n    uint _price = items[_sku].price;\n    uint amountToRefund = msg.value - _price;    \n    items[_sku].buyer.transfer(amountToRefund);\n  }\n\n  /* Modifiers called to verify different statuses of the basket */\n  modifier forSale(uint _sku) {require(items[_sku].state == State.ForSale, \"Basket for sale\"); _;}\n  modifier sold(uint _sku) {require(items[_sku].state == State.Sold, \"Basket sold\"); _;}\n  modifier shipped(uint _sku) {require(items[_sku].state == State.Shipped, \"Basket shipped\"); _;}\n  modifier received(uint _sku) {require(items[_sku].state == State.Received, \"Basket received\"); _;}\n\n  constructor() public {\n    /* Here, set the owner as the person who instantiated the contract\n       and set your skuCount to 0. */\n    owner = msg.sender;\n    skuCount = 0;\n  }\n\n  function addItem(string memory _name, uint _price) public returns(bool){\n    emit ForSale(skuCount);\n    items[skuCount] = Basket( {\n      name: _name,\n      sku: skuCount,\n      price: _price,\n      state: State.ForSale,\n      longitude: \"0\",\n      latitude: \"0\",\n      seller: msg.sender,\n      buyer: 0x0000000000000000000000000000000000000000});\n    skuCount = skuCount + 1;\n    return true;\n  }\n\n  /* transfer money to the seller, set the buyer as the person who called this transaction, and set the state\n    to Sold. */\n\n  function buyItem(uint sku)\n    public\n    payable\n    forSale(skuCount)\n    paidEnough(items[sku].price)\n    checkValue(sku)\n  {\n    items[sku].seller.transfer(items[sku].price);\n    items[sku].buyer = msg.sender;\n    items[sku].state = State.Sold;\n    emit Sold(sku);\n  }\n\n  /* Add 2 modifiers to check if the item is sold already, and that the person calling this function\n  is the seller. Change the state of the item to shipped. Remember to call the event associated with this function!*/\n  function shipItem(uint sku)\n    public\n    sold(sku)\n    verifyCaller(msg.sender)\n  {\n    items[sku].state = State.Shipped;\n    emit Shipped(sku);\n  }\n\n  /* Marks the basket as received at the end of the delivery */\n  function receiveItem(uint sku)\n    public\n    shipped(sku)\n    verifyCaller(msg.sender)\n  {\n    items[sku].state = State.Received;\n    emit Received(sku);\n  }\n\n  /* We have these functions completed so we can run tests, just ignore it :) */\n  function fetchItem(uint _sku) public view returns (string memory name, uint sku, uint price, uint state, address seller, address buyer) {\n    name = items[_sku].name;\n    sku = items[_sku].sku;\n    price = items[_sku].price;\n    state = uint(items[_sku].state);\n    seller = items[_sku].seller;\n    buyer = items[_sku].buyer;\n    return (name, sku, price, state, seller, buyer);\n  }\n\n}\n",
  "sourcePath": "/Users/mlux/Documents/Deloitte/Sandbox/ConsenSysAcademy/final-project/contracts/Delivery.sol",
  "compiler": {
    "name": "solc",
    "version": "0.5.0+commit.1d4f565a.Emscripten.clang"
  },
  "schemaVersion": "3.0.1",
  "updatedAt": "2019-01-08T10:18:07.347Z",
  "devdoc": {
    "methods": {}
  },
  "userdoc": {
    "methods": {}
  }
}